:103800000C94A91E07B0041C0300A51EB31E3E1C89
:1038100000000000000000000000000000000000A8
:10382000000000000C94A91E0C94A91E0C94A91E63
:103830000C94A91E0C94A91E0C94A91E0C94A91EEC
:103840000C94781F0C94A91E0C94A91E0C94A91E0C
:103850000C94A91E0C94A91E0C94A91E0C94A91ECC
:103860000C94A91D0C94A91E0001010000000F95E5
:1038700000010008000480000080FFFF2F923F92AB
:103880004F925F926F927F928F929F92AF92BF9270
:10389000CF92DF92EF92FF920F931F93DF93CF931C
:1038A00000D00F92CDB7DEB74C018B01DB01129631
:1038B0008C91803BC9F424E33CE144275527220F37
:1038C000331F441FCB010396B90144E150E081D37B
:1038D00080919901F801838384E1828381E0809360
:1038E000860165E170E019C1813B89F5FB013496E1
:1038F000DB0114965C91A1818381807C44814D31F0
:1039000008F04CE1F801428398012D5F3F4F882376
:1039100031F4C901652F7A2F50E05BD310C0803895
:1039200031F4C901652F7A2F50E065D308C0803487
:1039300009F0EEC0652F7A2FC90150E053D3D801AA
:1039400012968C91682F70E06F5F7F4FE6C0823BCC
:1039500009F0BBC0FB018081882309F0DCC024E0B2
:10396000222E312C260E371E4481D10111965C91F6
:10397000119712969C91129713968C91807CB3812B
:10398000B450B983BD3110F0ECE1E983882309F02C
:1039900088C07A01092F10E090E8A92E9FEFB92E78
:1039A0009FEFC92E9FEFD92EAE20BF20C022D1227B
:1039B000D4012D913D914D915C91A216B306C406A0
:1039C000D50621F4B981BB2309F055C0F4018481E7
:1039D000882309F441C080E8482E512C612C712CB9
:1039E000420E531E641E751EBFB7F894F999FECFA0
:1039F000B90183E0F90180935700E89507B600FC10
:103A0000FDCFC40105969B838A83A1E010C0EA81A3
:103A1000FB8181919191FB83EA83F9010C01A093D1
:103A20005700E89511242E5F3F4F4F4F5F4F2415ED
:103A300035054605570558F385E0FB01809357008F
:103A4000E89507B600FCFDCF81E180935700E8952B
:103A5000BFBFD40114961C92F401A082B182C2822D
:103A6000D382C4010596B50140E850E0B2D2F98195
:103A7000FF2309F44DC0D4018D919C919701281B1F
:103A8000390B2B5F3F4F280D391DA1014C5F5F4F54
:103A9000C901BA01498150E0A5D281E0F4018483D3
:103AA00037C0803839F4C1010496BA01498150E029
:103AB000B2D22EC0803461F591012C5F3F4FCA0114
:103AC000B901498150E08ED223C0833B99F4DB01D8
:103AD0008C91882301F5F8941092BC0010926E002E
:103AE00010926F001092700081E085BF15BE0C949B
:103AF000000011C0843B79F4FB018081882359F4D4
:103B0000F89488E18093600088E080936000FFCFA4
:103B100060E070E002C06FEF7FEFCB010F900F907D
:103B20000F90CF91DF911F910F91FF90EF90DF9059
:103B3000CF90BF90AF909F908F907F906F905F904D
:103B40004F903F902F900895BC0181E091E096DE68
:103B500008951F920F920FB60F9211242F933F9347
:103B60004F935F936F937F938F939F93AF93BF9385
:103B7000EF93FF938BE991E0F6D0ECEBF0E08081DE
:103B800080688083FF91EF91BF91AF919F918F915A
:103B90007F916F915F914F913F912F910F900FBE49
:103BA0000F901F901895CF93DF93EC01259A82E335
:103BB000F4D107C02D9889E1F0D12D9A89E1EDD19A
:103BC00021971C161D06B4F382E3E7D1DF91CF9154
:103BD0000895CF93DF93EC0181E090E0E4DF249837
:103BE0002C9AF89482E090E0DEDF81E085BF82E0ED
:103BF00085BF82E090E0D7DF8FD182E090E0D3DF15
:103C0000259A80E285B985E090E0CDDF87E891E0F4
:103C10006CEE73E044E150E0EED190919A019F3F49
:103C200021F08091990187FF05C08BE08093990175
:103C30009F3F21F0809198018F3F19F485E0809398
:103C4000980186E090E0AFDF2091990186E3EBE9EF
:103C5000F1E0DF01982F1D929A95E9F780939B017F
:103C600081E080939C0180939D0110929F011092AE
:103C70009E0184EA9DE19093A1018093A00187B108
:103C80008F7C87B988B18F7C88B980E28093B80037
:103C90008091BC0084608093BC008091BC008068EF
:103CA0008093BC008091BC0081608093BC008091B7
:103CB000BC0080648093BC00220F2093BA008091E6
:103CC00064008F778093640085E8E1E0F1E0DF0134
:103CD0001D928A95E9F78FEF9FEFAFEFBFEF8093CB
:103CE000010190930201A0930301B093040110928B
:103CF0008601E0E0F0E0E491EF3F11F0219719F444
:103D000081E08093860183E090E04DDF789485E048
:103D100090E049DF8091860193B192959F709095D4
:103D20009170982B90938601F8941092BC00109299
:103D30006E0010926F001092700081E085BF15BE7A
:103D40000C940000DF91CF91089581E090E041DF75
:103D5000089511241FBECFEFD8E0DEBFCDBF80E0B5
:103D600090E00C94E91D0F931F93CF93DF93EC0128
:103D70008091B900887F0091BC00882309F49FC01E
:103D8000803641F0883631F0803711F08837D9F429
:103D90001F8204C08091BA008E7F8F8384E090E000
:103DA0009C838B83CE014296FC0184E2DF011D924D
:103DB0008A95E9F7CE0144969B878A871C861D86E3
:103DC00080E06F8118C0803811F08039B9F46091BB
:103DD000BB008C85823230F4EA85FB85E80FF11D4B
:103DE000608305C0823219F00F7B1C821B828C8598
:103DF0008F5F8C8789856CD0898761C0883809F48A
:103E00005DC0883909F45AC0803A09F58B819C81DC
:103E10000497D1F4ED81FE81309739F08C858B8B3E
:103E2000CE01429609958B8B01C01B8A2B892223D8
:103E300031F0CE0144969F878E87288B05C01F8660
:103E40001E86188A1C821B821C821B8238C0803B03
:103E500011F0883A81F48B819C81892B21F483E0D5
:103E600090E09C838B83198A6091BA006160898598
:103E70002FD0898702C0883BC9F48989988998170F
:103E800010F410E010C0891719F419850F7B0BC0CE
:103E9000EE85FF85E80FF11D10818F5F898B898585
:103EA000612F16D089871093BB0009C0803C21F098
:103EB000883C11F080E007C01C821B8200640F77F1
:103EC0000093BC0081E0DF91CF911F910F91089585
:103ED000682780E027E0962F990F67FF03C0692FBE
:103EE000622701C0692F8F5F8830A9F7862F089558
:103EF0001F920F920FB60F9211248F9380910001A1
:103F00008F5F8093000183E886BD15B88F910F9075
:103F10000FBE0F901F90189583E085BD16BC789456
:103F20000895009731F0A0EDB7E01197F1F70197F0
:103F3000D1F70895009731F0A2E0B0E01197F1F7C2
:103F40000197D1F7089524E630E008C0F901A2E016
:103F5000B0E01197F1F73197D1F781508823B1F78D
:103F600008952AE030E008C0F901A2E0B0E011971E
:103F7000F1F73197D1F781508823B1F7089524E6FE
:103F800030E008C0F901A0EDB7E01197F1F73197E3
:103F9000D1F781508823B1F708952AE030E008C0B6
:103FA000F901A0EDB7E01197F1F73197D1F7815002
:103FB0008823B1F7089521E030E008C0F901A0EDB1
:103FC000B7E01197F1F73197D1F781508823B1F716
:103FD0000895FB01DC0102C005900D924150504054
:103FE000D8F70895FB01DC0102C001900D92415009
:103FF0005040D8F70895DC01CB01FC01F999FECFC0
:1040000006C0F2BDE1BDF89A319600B40D92415060
:104010005040B8F70895DC01CB0103C02D910E94F8
:10402000162041505040D0F70895262FF999FECF21
:104030001FBA92BD81BD20BD0FB6F894FA9AF99AC5
:064040000FBE0196089579
:0400000300003D526A
:00000001FF
