:100000000C9434000C945E050C943B050C94510048
:100010000C9451000C9451000C9451000C9460010C
:100020000C9451000C9451000C9451000C9451000C
:100030000C9451000C9451000C9451000C945100FC
:100040000C9451000C9451000C9451000C945100EC
:100050000C9451000C9451000C9451000C945100DC
:100060000C94EB050C94510011241FBECFEFD8E087
:10007000DEBFCDBF11E0A0E0B1E0EEEDF6E102C0E1
:1000800005900D92AC30B107D9F711E0ACE0B1E0CA
:1000900001C01D92AD3CB107E1F70E949B000C949A
:1000A0006D0B0C94000015B814B818B817B81BB82D
:1000B0001AB80895F89480916B01882331F58091E6
:1000C00000014CE351E024E231E0882359F05093E1
:1000D000740140937301309376012093750110925F
:1000E00000010BC03093740120937301509376018B
:1000F0004093750181E0809300018091730190919C
:1001000074019093CC018093CB0178940895FC0105
:10011000F894908121E030E002C0220F331F6A95ED
:10012000E2F7822F8095892380837894892F822318
:1001300009F081E00895EF92FF921F93CF93DF9330
:10014000F8948CE091E090937A01809379019093F8
:100150007801809377019093CA018093C90124E2CA
:1001600031E030937401209373018CE391E090931C
:100170007601809375013093CC012093CB010E94CE
:1001800053000E94F4040E94F3030E942A050E9477
:10019000180180E20E9480050E94BA050E949C041A
:1001A0007894C0E0D0E010E0E12C80E8F82E609177
:1001B000540170915501CE010E942C0116161706AC
:1001C000180619068CF00E945A000E941204CE01F3
:1001D000449660E67AEE0E943108EC011F5F1A3106
:1001E00018F00E94900210E080916A018823F9F2D1
:1001F000E0917901F0917A0180819181805090485D
:10020000A1F0828193818050904879F08081918122
:10021000628173810E94DA01E0917901F0917A01A3
:10022000F182E082F382E28210E010926A01BFCF95
:100230008CE78093B30082E08093B00084E08093E9
:10024000B100E4E6F0E080818F7B8083E0E7F0E0BE
:100250008081826080830895EF92FF920F931F93B5
:100260009B017C0100E010E040E050E0E21AF30A5C
:10027000040B150B81E3E81685E7F80680E0080714
:1002800080E018072CF080EA95E1AFEFBFEF0DC0DA
:1002900090EDE9169AE8F9069FEF09079FEF190715
:1002A00044F480E69AEEA0E0B0E0E80EF91E0A1FE2
:1002B0001B1FB701C8011F910F91FF90EF90089588
:1002C0001F920F920FB60F9211242F933F935F93BB
:1002D0006F937F938F939F93AF93BF9380915401BC
:1002E000909155010196909355018093540180910E
:1002F00054019091550160E67AEE0E943108909386
:10030000550180935401BF91AF919F918F917F913F
:100310006F915F913F912F910F900FBE0F901F90A3
:100320001895982F262F80E062E370E00E94310834
:100330007093A2016093A10180E0922F62E370E0CC
:100340000E9431087093A4016093A301089584E191
:1003500090E066E170E00E9491010895FC01138233
:1003600012821182108217821682158214821086E0
:10037000118612861386148615861686178684E1E2
:10038000848F82E0858F85E0868F81E0878F8FEF75
:1003900090E093A382A380E390E091A380A3138ACB
:1003A000128A158A148A118E108E138E128E178A55
:1003B000168A08952F923F924F925F926F927F928A
:1003C0008F929F92AF92BF92CF92DF92EF92FF9265
:1003D0000F931F93CF93DF93EC016B01BE0188272E
:1003E00077FD8095982F982F872F762F662722E309
:1003F00030E040E050E00E945808B22EA32E542E68
:10040000452E622E732EB601882777FD8095982F92
:10041000982F872F762F662724E630E040E050E0C3
:100420000E945808922E832E342E252EE22F432F21
:10043000C60162E070E00E944508CB0177FF03C06F
:10044000909581959F4F9E01D7FF04C022273327A7
:100450002C1B3D0B280F391F79010027F7FC009555
:10046000102F80919F019091A001A0E0B0E08E1527
:100470009F05A007B1071CF520919F013091A001B5
:1004800040E050E06B2D7A2D852D942D0E941208AE
:10049000A80197010E945808390120919F013091CD
:1004A000A00140E050E0692D782D832D922D0E940F
:1004B0001208A80197010E945808E22F432F8E2F9F
:1004C000942F44275527481B590B7092AA0160921C
:1004D000A9015093A6014093A501709280016092FA
:1004E0007F0190937C0180937B01E0917501F091F5
:1004F0007601D183C083D382C282DF91CF911F91D5
:100500000F91FF90EF90DF90CF90BF90AF909F90B2
:100510008F907F906F905F904F903F902F900895B5
:1005200080E090E060E070E00E94DA010895FA0156
:1005300095838483718360830895FB0124853585C9
:1005400046855785992787FD9095A92FB92F820F4A
:10055000931FA41FB51F84879587A687B787089523
:10056000AF92BF92CF92DF92EF92FF920F931F93C1
:10057000DF93CF9300D0CDB7DEB75C016B01FB01F9
:100580006085718582859385E484F5840685178569
:1005900020E031E040E050E00E9458082E193F0969
:1005A0003A8329831A141B0444F48B2D992787FD61
:1005B0009A952817390784F50BC0A114B10461F18D
:1005C000C50160E071E00E9445086217730724F5D9
:1005D000F6012085318542855385C501AA2797FDFF
:1005E000A095BA2F820F931FA41FB51F80879187F4
:1005F000A287B3876085718582859385E484F584BD
:100600000685178520E031E040E050E00E94580860
:100610002E193F093A832983CE01019664E670E0E2
:100620000E94FB06882329F489819A81F601938B25
:10063000828B0F900F90CF91DF911F910F91FF90C0
:10064000EF90DF90CF90BF90AF900895FC0126818E
:100650003781848195812817390794F486819781A1
:100660002091A1013091A201820F931F978386836D
:10067000268137818481958182179307B4F411C054
:10068000868197812091A1013091A201821B930B59
:10069000978386832681378184819581281739073E
:1006A00024F484819581978386832281338180819C
:1006B00091812817390794F4828193812091A301B5
:1006C0003091A401820F931F93838283228133810F
:1006D0008081918182179307B4F411C08281938144
:1006E0002091A3013091A401821B930B93838283F9
:1006F00022813381808191812817390724F48081F8
:100700009181938382832681378182819381820FB5
:10071000931FBF010E94B0020895CF93DF93EB01B6
:100720006E5E7F4F992787FD90950E94A907BC01B7
:100730008E819F81892BE9F48A819B81892BC9F461
:100740002C893D898C899D89829FA001839F500DB2
:10075000929F500D1124453051055CF4649FC001F7
:10076000659F900D749F900D112468E070E00E94C9
:100770004508798B688BCB01DF91CF910895FF926B
:100780000F931F93F82E8B01FB0124853585468539
:100790005785992787FD9095A92FB92F820F931F11
:1007A000A41FB51F84879587A687B787CB010E94B2
:1007B00026038F2DB8010E948D031F910F91FF908A
:1007C000089581E080935E0180E060E00E94A004D3
:1007D00081E060E00E94A00480E090E060E070E0D2
:1007E0000E94DA0108950E94A70185EA91E00E9423
:1007F000AE018BE791E00E94AE0180E090E060E006
:1008000070E00E94DA0180E890E09093A00180936C
:100810009F0180E062E00E94A00481E062E00E940B
:10082000A0040895CF92DF92EF92FF920F931F934F
:10083000CF93DF93F89480916301909164010091CC
:100840006501109166014091670150916801209106
:100850005F0130916001240F351F309360012093B8
:100860005F01109264011092630110926601109270
:1008700065011092680110926701C0905401D090F8
:100880005501789465EA71E00E94BF037C01802FD6
:100890006BE771E00E94BF03EC0180915E01882349
:1008A00001F5F7FE06C0F094E194F108F39463E0DB
:1008B00002C080E062E00E94A004D7FF06C0D0958D
:1008C000C195DF4F81E063E002C081E062E00E94F9
:1008D000A00480E06E2D0E94180581E06C2F0E941C
:1008E0001805F894E0917501F09176018091B101BD
:1008F0009091B201A091B301B091B401958384832A
:100900008091870190918801A0918901B0918A011D
:100910009783868380915F019091600191878087A2
:10092000D386C2867894DF91CF911F910F91FF906B
:10093000EF90DF90CF900895409A089540980895E1
:10094000882349F580916101861709F44CC08230F3
:10095000A8F4623019F42D982C9A0DC0633011F46C
:100960002C9808C0613019F42C982D9804C0662387
:1009700011F42C9A2D9A609361010895662329F44D
:100980002C9A2D9A1092610108952C982D9881E04F
:10099000809361010895813031F59091620196173D
:1009A00011F19230A8F4623019F42B98289A0DC0F6
:1009B000633011F4289808C0613019F428982B98F6
:1009C00004C0662311F4289A2B9A6093620108955B
:1009D000662329F4289A2B9A109262010895289888
:1009E0002B98809362010895389A209A239A249A2A
:1009F000259A219A229A81EA8093800081E080934F
:100A00008100109289001092880010928B00109241
:100A10008A00E4E6F0E08081877F8083409A80E06E
:100A200060E00E94A00481E060E00E94A0040895BC
:100A3000882339F4862F90E090938B0080938A006E
:100A40000895813031F4862F90E09093890080934F
:100A50008800089553985598529854985B985A98DE
:100A60005D985C98E9E6F0E08081856080838DB3D5
:100A700083608DBB08951F920F920FB60F921124C1
:100A80008F939F9389B182958695877080FF06C06A
:100A90008091630190916401019705C08091630189
:100AA00090916401019690936401809363019F91FA
:100AB0008F910F900FBE0F901F9018951F920F925D
:100AC0000FB60F9211248F939F9389B182958F70E7
:100AD00080FF06C08091650190916601019605C076
:100AE00080916501909166010197909366018093D2
:100AF00065019F918F910F900FBE0F901F901895D9
:100B00008093BA0084E08093BC0010926E01E4E60A
:100B1000F0E080818F778083089580916E01089541
:100B200080916E01882319F4809101010895FFCF0F
:100B30009C0180916E018823E1F460937201D901D8
:100B400090E009C0E091CB01F091CC01E90FF11DDB
:100B50008D9180839F5F9617A8F310926D0188EFA7
:100B60008093010185EC8093BC0081E080936E014D
:100B70000895FFCF80916E01882359F410926D0182
:100B800088EF8093010185EC8093BC0010926E0188
:100B90000895FFCF9C0180916E018823D9F4809144
:100BA0006D0180FF13C0D90190E009C0E091C90137
:100BB000F091CA01E90FF11D80818D939F5F961717
:100BC000A8F380916D018D7F80936D0180916D01FF
:100BD00081700895FFCF1F920F920FB60F921124CC
:100BE0002F938F939F93EF93FF938091B900803958
:100BF00009F455C0813990F48037F1F1813738F428
:100C0000882309F48DC0803609F092C03AC080383C
:100C100009F445C0883809F08BC082C0883A91F049
:100C2000893A38F4883909F47BC0803A09F080C0E9
:100C30005DC0803CD9F0883C09F472C0883B09F063
:100C400077C005C01092700181E080936B01909194
:100C50007101E091CB01F091CC01E90FF11D808190
:100C60008093BB009F5F9093710112C080916D01D2
:100C7000816080936D013AC080916D0184608093A2
:100C80006D0180916D01826080936D011092700101
:100C900085EC8093BC0081E080936E0152C020916E
:100CA0007001222339F48091BB008093710110926E
:100CB0006F0113C090917101E091C901F091CA01D7
:100CC000E90FF11D8091BB0080839F5F90937101BC
:100CD00081E080936F0180936C012F5F20937001FE
:100CE00080916D01816080936D01D2CF85EC8093FE
:100CF000BC0010926E0180916F01882339F0109230
:100D00006F0110926C0181E080936A0180916B0108
:100D10008823B9F010926B0181E08093690111C0C2
:100D20008091B9008093010180E98093BC0009C0E3
:100D30008091B9008093010185EC8093BC001092F2
:100D40006E01FF91EF919F918F912F910F900FBEA8
:100D50000F901F901895382FFB01908120E04CE8F0
:100D6000892F8327969580FD94272F5F283011F0D7
:100D70003695F6CF908308956F927F928F929F92CF
:100D8000AF92BF92CF92DF92EF92FF920F931F9399
:100D9000DF93CF930F92CDB7DEB74C015A016B01B1
:100DA0002983EE24FF2487013E010894611C711CF5
:100DB0000CC0F401EE0DFF1D8081B3010E94AB0653
:100DC0000894E11CF11C011D111DEA14FB040C0523
:100DD0001D0578F389810F90CF91DF911F910F91BD
:100DE000FF90EF90DF90CF90BF90AF909F908F904B
:100DF0007F906F900895FC01CB0177FF03C0909521
:100E000081959F4F408151818417950724F49183E8
:100E1000808381E0089522273327281B390B42174E
:100E2000530714F080E008953183208381E0089512
:100E3000FC01808191814817590724F45183408334
:100E400081E008958617970714F080E00895718374
:100E5000608381E008956F927F928F929F92AF920C
:100E6000BF92CF92DF92EF92FF920F931F93DF9387
:100E7000CF93CDB7DEB729970FB6F894DEBF0FBE7C
:100E8000CDBF3C014B015A016901161617060CF043
:100E900048C04115510509F444C0009709F441C008
:100EA0002115310521F46E010894C11CD11CDE010D
:100EB0001196E2E0F1E089E001900D928150E1F7B6
:100EC00000E010E0EE24FF2400D000D000D0ADB749
:100ED000BEB71196C301800F911FEDB7FEB7928385
:100EE00081831396DC92CE921297F501EE0DFF1DD1
:100EF000808114968C93149715961C920E949508E5
:100F0000080F191F0894E11CF11C8DB79EB70696B7
:100F10000FB6F8949EBF0FBE8DBFE814F904A4F27B
:100F200002C000E010E0C80129960FB6F894DEBFB9
:100F30000FBECDBFCF91DF911F910F91FF90EF902A
:100F4000DF90CF90BF90AF909F908F907F906F90E9
:100F500008950F931F93DF93CF9300D0CDB7DEB7E3
:100F60008B01FB0140815181481B590B5383428304
:100F700064817581641B750B778366835583448315
:100F80008485992787FD909520853185FC01E29F16
:100F9000C001E39F900DF29F900D1124F80122856E
:100FA000332727FD3095F901E49F9001E59F300D2F
:100FB000F49F300D1124820F931FF80123853327EE
:100FC00027FD3095A901469F9001479F300D569F00
:100FD000300D11246585772767FD7095821B930B73
:100FE0000E9445087A83698360897189CE010196E0
:100FF0000E94FB06F8018085918522813381820F52
:10100000931F9187808766857785C80108960E941F
:10101000FB0689819A810F900F90CF91DF911F91EC
:101020000F910895629FD001739FF001829FE00DA0
:10103000F11D649FE00DF11D929FF00D839FF00D57
:10104000749FF00D659FF00D9927729FB00DE11D03
:10105000F91F639FB00DE11DF91FBD01CF011124E0
:101060000895AA1BBB1B51E107C0AA1FBB1FA617EF
:10107000B70710F0A61BB70B881F991F5A95A9F741
:1010800080959095BC01CD01089597FB092E072608
:101090000AD077FD04D0E5DF06D000201AF4709561
:1010A00061957F4F0895F6F7909581959F4F08952C
:1010B00097FB092E05260ED057FD04D014D00AD078
:1010C000001C38F450954095309521953F4F4F4F77
:1010D0005F4F0895F6F790958095709561957F4FD5
:1010E0008F4F9F4F0895A1E21A2EAA1BBB1BFD0133
:1010F0000DC0AA1FBB1FEE1FFF1FA217B307E407F7
:10110000F50720F0A21BB30BE40BF50B661F771F4E
:10111000881F991F1A9469F760957095809590952E
:101120009B01AC01BD01CF010895AEE0B0E0EBE959
:10113000F8E00C94440B0D891E8986E08C831A8399
:1011400009838FEF9FE79E838D839E01275E3F4F2C
:10115000CE0101966F89788DA9010E94B9082F816F
:101160003885020F131FF80110822E96E4E00C94CC
:10117000600BABE0B0E0EFEBF8E00C94360B3C0119
:101180002B015A01FC0117821682838181FD03C065
:101190006FEF7FEFC6C19AE0892E1E010894211CD3
:1011A000311CF3012381F20123FD859123FF8191FD
:1011B0002F01882309F4B2C1853239F423FD8591CA
:1011C00023FF81912F01853229F490E0B3010E9421
:1011D000AC0AE7CF982FFF24EE249924FFE1FF15F6
:1011E000D0F09B3269F09C3228F4903259F093325F
:1011F00091F40EC09D3249F0903369F441E024C06F
:1012000052E0F52A84E0F82A28C098E0F92A25C09F
:10121000E0E1FE2A22C0F7FC29C0892F80538A30E2
:1012200070F4F6FE05C0989C902C1124980E15C001
:10123000E89CE02C1124E80EF0E2FF2A0EC09E325A
:1012400029F4F6FC6BC140E4F42A07C09C3619F47B
:1012500050E8F52A02C0983649F4F20123FD959131
:1012600023FF91912F01992309F0B8CF892F85543D
:10127000833018F08052833038F444E050E0A40EFC
:10128000B51E5FE359830FC0933631F0933779F081
:10129000933509F056C020C0F5018081898342E072
:1012A00050E0A40EB51E610101E010E012C0F5018E
:1012B000C080D180F6FC03C06FEF7FEF02C0692DC4
:1012C00070E042E050E0A40EB51EC6010E94A10AE3
:1012D0008C015FE7F52214C0F501C080D180F6FCD7
:1012E00003C06FEF7FEF02C0692D70E042E050E075
:1012F000A40EB51EC6010E94960A8C0150E8F52A7C
:10130000F3FE07C01AC080E290E0B3010E94AC0A6D
:10131000EA948E2D90E008171907A8F30EC0F60185
:10132000F7FC8591F7FE81916F0190E0B3010E9477
:10133000AC0AE110EA94015010400115110579F74B
:10134000EAC0943611F0993669F5F7FE08C0F50148
:10135000208131814281538184E090E00AC0F5010F
:10136000808191819C01442737FD4095542F82E074
:1013700090E0A80EB91E9FE6F92257FF09C05095CC
:101380004095309521953F4F4F4F5F4FE0E8FE2A43
:10139000CA01B901A1012AE030E00E94D80AD82E82
:1013A000D21840C0953729F41F2D1F7E2AE030E067
:1013B0001DC01F2D197F9F3661F0903720F498359E
:1013C00009F0ACC00FC0903739F0983709F0A6C0CB
:1013D00004C028E030E00AC0106114FD146020E170
:1013E00030E004C014FD166020E132E017FF08C0B1
:1013F000F501608171818281938144E050E008C0F1
:10140000F50180819181BC0180E090E042E050E0F4
:10141000A40EB51EA1010E94D80AD82ED2188FE7BB
:10142000F82EF122F6FE0BC05EEFF522D91438F447
:10143000F4FE07C0F2FC05C08FEEF82202C01D2D9D
:1014400001C0192DF4FE0DC0FE01ED0DF11D8081CE
:10145000803319F499EEF92208C01F5FF2FE05C02F
:1014600003C08F2D867809F01F5F0F2DF3FC14C089
:10147000F0FE0FC01E1510F09D2C0BC09D2C9E0C75
:10148000911A1E2D06C080E290E0B3010E94AC0AC2
:101490001F5F1E15C0F304C01E1510F4E11A01C031
:1014A000EE2404FF0FC080E390E0B3010E94AC0A79
:1014B00002FF1DC001FD03C088E790E00EC088E573
:1014C00090E00BC0802F867891F001FF02C08BE284
:1014D00001C080E2F7FC8DE290E0B3010E94AC0A0B
:1014E00006C080E390E0B3010E94AC0A9A94D9143C
:1014F000C0F3DA94F101ED0DF11D808190E0B301AC
:101500000E94AC0ADD20A9F706C080E290E0B3019A
:101510000E94AC0AEA94EE20C1F743CEF301668143
:101520007781CB012B96E2E10C94520BFC010590E4
:10153000615070400110D8F7809590958E0F9F1FD5
:101540000895FC016150704001900110D8F780951A
:1015500090958E0F9F1F08950F931F93CF93DF9346
:101560008C01EB018B8181FF1BC082FF0DC02E819E
:101570003F818C819D812817390764F4E881F981C6
:101580000193F983E88306C0E885F985802F0995E2
:10159000892B31F48E819F8101969F838E8302C0B7
:1015A0000FEF1FEFC801DF91CF911F910F910895A9
:1015B000FA01AA27283051F1203181F1E8946F9384
:1015C0006E7F6E5F7F4F8F4F9F4FAF4FB1E03ED02A
:1015D000B4E03CD0670F781F891F9A1FA11D680FC8
:1015E000791F8A1F911DA11D6A0F711D811D911DFB
:1015F000A11D20D009F468943F912AE0269F112470
:101600003019305D3193DEF6CF010895462F4770D3
:10161000405D4193B3E00FD0C9F7F6CF462F4F702E
:10162000405D4A3318F0495D31FD4052419302D08C
:10163000A9F7EACFB4E0A695979587957795679532
:10164000BA95C9F700976105710508959B01AC0132
:101650000A2E06945795479537952795BA95C9F759
:10166000620F731F841F951FA01D08952F923F9234
:101670004F925F926F927F928F929F92AF92BF92A2
:10168000CF92DF92EF92FF920F931F93CF93DF934E
:10169000CDB7DEB7CA1BDB0B0FB6F894DEBF0FBEAB
:1016A000CDBF09942A88398848885F846E847D84F8
:1016B0008C849B84AA84B984C884DF80EE80FD80FA
:1016C0000C811B81AA81B981CE0FD11D0FB6F89470
:0E16D000DEBF0FBECDBFED010895F894FFCF31
:0C16DE0001F8307825302E325820000032
:00000001FF
