:1018000012C021C020C01FC01EC01DC01CC01BC0F4
:101810001AC019C018C017C016C015C014C013C014
:1018200012C02BC010C011241FBECFE5D4E0DEBF14
:10183000CDBF10E0A0E6B0E001C01D92AC3AB10708
:10184000E1F782D1D2C1DCCF20E533EC13C0949A0A
:10185000962F04C0F9013197F1F791509923D1F7F0
:101860009498942F04C0F9013197F1F7915099237E
:10187000D1F78150882359F708951F920F920FB620
:101880000F9211242F933F934F935F936F938F93F6
:101890009F93AF93BF93EF93FF9381B1887F80387D
:1018A00009F08BC080916900882319F483B180937B
:1018B000AA0080916900813019F483B1809360009F
:1018C0008091AA00813FC9F580916900882329F49D
:1018D0001092AB001092610030C08091690082309C
:1018E00069F483B190E0A0E0B0E08093620090934F
:1018F0006300A0936400B09365001FC080916900ED
:101900008330D9F48091620090916300A0916400CB
:10191000B091650063B1362F20E0442737FD409534
:10192000542F282B392B4A2B5B2B209362003093AA
:10193000630040936400509365008091AA00823F49
:1019400031F580916900823010F180916000882328
:10195000F1F08091AB00E82FF0E093B1E659FF4F32
:1019600090838F5F8093AB009091610083B1890F6A
:10197000809361008091600081508093600080912D
:10198000AB00803421F484E08093660082C09091A3
:10199000AA009E3F09F075C080916000813009F077
:1019A00070C080916900823009F06BC083B18F3FB5
:1019B00009F067C09093660064C081B1887F80366B
:1019C00049F48FEF9FEF9093680080936700109227
:1019D00069005CC081B1887F883AB1F48091AA0027
:1019E000833F29F08091AA00803F19F4949A81E006
:1019F0001CC08091AA00843F09F042C0949A80E103
:101A000083B9109260003DC081B1887F883B09F0A6
:101A10003DC08091AA00833F19F48091610005C008
:101A20008091AA00803F19F48FEF83B92AC080917A
:101A3000AA00843F29F5809160008031F8F48091FC
:101A4000620090916300A0916400B09165000196DE
:101A5000A11DB11D8093620090936300A093640068
:101A6000B09365000197A109B109FC01849183B984
:101A7000809160008F5F8093600003C0949801C0E4
:101A800013B8809169008F5F8093690086B7806882
:101A900086BFFF91EF91BF91AF919F918F916F9111
:101AA0005F914F913F912F910F900FBE0F901F901C
:101AB000189516BE88E082B985E486BF81B18C7F17
:101AC00081B9789486B7806886BF08950F931F9375
:101AD0000FB7F894E199FECFDB0183E0FB0180931F
:101AE0005700E89507B600FCFDCFBD0140E050E08F
:101AF00011E0FA01E659FF4F9081FA01E559FF4FD5
:101B00008081382F20E0F901E90FF11DCF01FB01A1
:101B10000C0110935700E89511244E5F5F4F6E5FE4
:101B20007F4F4034510529F785E0FD018093570030
:101B3000E89507B600FCFDCF81E180935700E8955A
:101B40000FBF1F910F9108950F931F93CF93DF93B2
:101B500081E08BBF82E08BBF8C9A64E144E174DE4C
:101B6000A8DF01E0C0E0D0E015E8809166008E3F7C
:101B700039F080916700909168008E5F9F4F49F423
:101B800085E065E04AE060DEF8940BBF1BBEFE0115
:101B9000099580916600843081F4949A6091620086
:101BA0007091630080916400909165008FDF94983C
:101BB0001092660086B7806886BF81B1882309F4D9
:101BC00078DF80916700909168008F5F9F4F69F286
:101BD00080916700909168000196909368008093CF
:0E1BE0006700812F8A95F1F7C0CFF894FFCFF0
:0400000300001800E1
:00000001FF
