:107800000C94343C0C94463C0C94463C0C94463C02
:107810000C94463C0C94463C0C94463C0C94463CE0
:107820000C94463C0C94463C0C94463C0C94463CD0
:107830000C94463C0C94463C0C94463C0C94463CC0
:107840000C94463C0C94463C0C94463C0C94463CB0
:107850000C94463C0C94463C0C94463C0C94463CA0
:107860000C94613C0C94463C11241FBECFEFD8E031
:10787000DEBFCDBF11E0A0E0B1E001C01D92AC3889
:10788000B107E1F70E94EA3D0C94453E0C94003CA0
:1078900020E533EC13C02D9A962F04C0F9013197DF
:1078A000F1F791509923D1F72D98942F04C0F90145
:1078B0003197F1F791509923D1F78150882359F7E7
:1078C00008951F920F920FB60F9211242F933F939A
:1078D0004F935F936F938F939F93AF93BF93EF9368
:1078E000FF938091B900887F803809F096C080911D
:1078F0000901882321F48091BB0080938A01809143
:107900000901813021F48091BB00809300018091B6
:107910008A01813FD9F580910901882329F41092C9
:107920008B011092010132C080910901823071F403
:107930008091BB0090E0A0E0B0E0809302019093C2
:107940000301A0930401B093050120C080910901B7
:107950008330E1F48091020190910301A091040130
:10796000B09105016091BB00362F20E0442737FD20
:107970004095542F282B392B4A2B5B2B2093020147
:1079800030930301409304015093050180918A01D3
:10799000823F61F580910901823044F180910001BC
:1079A000181624F580918B0187FD20C080918B01F2
:1079B000E82FF0E09091BB00E65FFE4F90838F5F71
:1079C00080938B01909101018091BB00890F80937E
:1079D00001018091000181508093000180918B0111
:1079E000803821F484E0809306018CC090918A0154
:1079F0009E3F09F07DC080910001813009F078C080
:107A000080910901823009F073C08091BB008F3FE3
:107A100009F06EC0909306016BC08091B900887F19
:107A2000803649F48FEF9FEF909308018093070110
:107A30001092090162C08091B900887F883AB9F438
:107A400080918A01833F29F080918A01803F19F457
:107A50002D9A81E01EC080918A01843F09F046C0C2
:107A60002D9A80E18093BB001092000141C080916B
:107A7000B900887F883B09F040C080918A01833F2C
:107A800019F48091010105C080918A01803F21F4A1
:107A90008FEF8093BB002CC080918A01843F31F529
:107AA00080910001803104F58091020190910301E1
:107AB000A0910401B09105010196A11DB11D809313
:107AC000020190930301A0930401B0930501019773
:107AD000A109B109FC0184918093BB008091000150
:107AE0008F5F8093000104C02D9802C01092BB00EC
:107AF000809109018F5F809309018091BC008068AB
:107B00008093BC00FF91EF91BF91AF919F918F91B6
:107B10006F915F914F913F912F910F900FBE0F90FA
:107B20001F901895ECEBF0E0108288E08093BA008B
:107B300085E48083E9EBF0E080818C7F8083E4E65C
:107B4000F0E080818F7780832D9A7894ECEBF0E0E1
:107B500080818068808308950F931F930FB7F894F6
:107B6000F999FECFDB0183E0FB0180935700E89594
:107B700007B600FCFDCFBD0140E050E011E0FA0186
:107B8000E65FFE4F9081FA01E55FFE4F8081382F5E
:107B900020E0F901E90FF11DCF01FB010C01109369
:107BA0005700E89511244E5F5F4F6E5F7F4F40385E
:107BB000510529F785E0FD0180935700E89507B648
:107BC00000FCFDCF81E180935700E8950FBF1F9126
:107BD0000F9108950F931F93CF93DF9381E085BF9B
:107BE00082E085BF259A64E144E10E94483C0E94FE
:107BF000923D01E0C0E0D0E015E8809106018E3FA3
:107C000039F080910701909108018E5F9F4F61F4D8
:107C10001092BC0085E065E04AE00E94483CF89480
:107C200005BF15BEFE01099580910601843099F4C7
:107C30002D9A60910201709103018091040190914D
:107C400005010E94AC3D2D98109206018091BC0068
:107C500080688093BC008091B900882311F40E9451
:107C6000923D80910701909108018F5F9F4F29F20B
:107C700080910701909108010196909308018093EB
:0E7C80000701812F8A95F1F7B8CFF894FFCF56
:040000030000780081
:00000001FF
